:4000000000100020110000007D0100007D01000010B501F0FDF800F09DFA00F0B7F8C04610B512220F4B1A60242001F069F8C82252010D4B1A600D4A8023DB051A600024C2
:400040000B4B1C6040220B4B1A600B490B2000F095FF0B2000F072FF084B1C60002001F0DFF810BD300010400003004040FF00802800034000010040B51200000C02064020
:4000800010B572B6EE220C4B1A600C4A0C4B1A6000220C4B1A6036320B4B1A600A230B4A13600B490B4A11600B4A1360FFF7B8FF00F058F810BDC046000002409999000015
:4000C0000003024004013F400800044000030440710C0000080304401803044000000000000000000000000000000000000000000000000000000000000000000000000079
:4001000010B5064C2378002B07D1054B002B02D0044800E000BF0123237010BD400100200000000028180000084B10B5002B03D00749084800E000BF07480368002B00D1A2
:4001400010BD064B002BFBD09847F9E7000000004401002028180000B00000200000000062B6FEE70322034B1A600022024B1A607047C04608013F40000E3F4010B501F0DC
:4001800011FB03680C2B00D1FEE7FEE770B50F4E0F4D13E029686B68AC68002202E001C901C30432A242FAD1E868002202E0002102C304328242FAD11035013E002EE9D1CB
:4001C00001F0F6FAFFF7CCFFFEE7C04601000000FC18000010B500230AE0032B03D89A000B49505800E00B4899000B4A88500133282BF2D9FFF744FF084B1B68002B02D194
:400200000022064B1A6080229205054B1A6010BD000000007D01000000000020A800002008ED00E070B500291FD00E00104A8B1BC45C00230CE015006540ED0704D552086B
:400240000C4D6A4092B200E0520864080133DBB2072BF0D9013EB6B2002EE8D1D24392B2100280B2120A104300E0002070BDC046FFFF00000884FFFF30B5002307E01C185D
:400280002478E4B2CD5CAC4205D101339BB29342F5D3002000E0022030BDC0460047C046F0B583B00D006B469E1DDA8001230B7048701400AA70130ACB70171DB9B2280050
:4002C000FFF7B0FFE855631D000AE854A31D1722EA540734A1B296233200280000F0C6FC03B0F0BD70B505000E001400002802D0002000F041FE002005E0013CAB19E318D6
:400300001B781818C0B2002CF7D170BD70B5A0B0C5097F2304009C43002304E01A5D6E46F25401339BB27F2BF8D97F2318406B461B5C8B4206D06B4619542804000C694661
:4003400000F032FD20B070BD70B50500012811D80DE0611B4B425941C9B2E0014042064B9C466044FFF7D2FF0134E4B200E00024012CEED970BDC046D07F000010B50C28DB
:4003800063D88000404B1B589F464B06591ACB013E4A9446634401225CE04B06591ACB013B4A94466344042254E04B06591ACB01384A9446634402224CE04B06591ACB0144
:4003C000354A94466344042244E04B06591ACB01324A9446634401223CE04B06591ACB012F4A94466344012234E04B06591ACB012C4A9446634402222CE04B06591ACB01DF
:40040000294A94466344022224E04B06591ACB01264A9446634402221CE04B06591ACB01234A94466344042214E04B06591ACB01204A9446634401220CE04B06591ACB014D
:400440001D4A94466344042204E0002000F094FD02220023012A02D11878C0B200E00020022A03D11978587800020843042A09D11A785878000210439A7812041043DB7867
:400480001B06184310BDC0462C180000C07F0000C17F0000C57F0000C97F0000D07F0000D17F0000D67F0000D27F0000D47F0000D87F0000DC7F0000E07F0000F0B54746C3
:4004C00080B40500884616001F0001281FD801000320FFF753FF013084B2FE20001B80B20221491BC9B201F071F883B2E3189BB2013B9BB2B44201D8B3420AD24346002BAC
:4005000009D1FF335D1BAF4207D0002006E00D2004E00D2002E0002000E00D2004BC9046F0BDC04610B500210520FFF727FFC4B201210520FFF722FFC0B2002C02D0002840
:4005400004D106E0002803D0012002E0032000E0022010BD10B5124B1B68DB0602D40022104B1A600F4B1B68802B18D10E4B1C78E4B2012C02D9FFF7D5FF04000022094B3D
:400580001A6021000220FFF7F9FE002807D0012C05D821000220FFF7F1FEFFF77FFE10BD54000340A8000020B400002070B5050001000320FFF7E2FE441CE4012900042037
:4005C000FFF7DCFE2418012D1FD829000320FFF7D5FE0130C0010023002608E001784A1ED2B2FD2A00D801265B18DBB20130A042F4D35B42DCB229000120FFF7BFFE84423F
:4006000005D1002E05D1062004E0062002E0062000E0002070BDC046F0B55F4656464D464446F0B4D04CA544050000F0D9FA62B60023994600260A249846002D01D1FF2394
:4006400000E02B00C94A02A98C4662449621490052A800F0CDFA002D01D0013CE4B2002C01D00028E9D1002800D0A1E2BF4B02AA944663441B88062B24D952AA1278012AA4
:4006800022D152A9CA78120289780A439046110007329A421AD896235B009A4218D84A1D52AB9F5C3A02081D1F5C174306315B5C172B0FD181B252A8FFF7B4FD87420BD1BC
:4006C00000270AE0042708E0042706E0032704E0032702E0042700E00827002F00D0E8E152AB1A7993465A781300313BD9B2142900D9ACE18B009E49CB589F46012E00D048
:40070000D9E14346012B00D0D8E15B46012B00D9D7E15846FFF74AFF002800D0D4E15B465B065A469B1AD901924B9C466144382253A801F063F8382233E2012E00D0C6E18E
:400740004346002B00D0C5E18B4B1878C0B2FFF72DFF4342434152AA1371012221E2012E00D0BAE14346032B02D0832B00D0B7E152AA93791B02527913439A464346032B90
:4007800008D0DA1E4821FF3102AB9C46614407A801F034F85B46002B00D0A4E118025044C0015346FF2B00D90A27002F00D09DE1802207A9FFF760FD07000022F1E1012E27
:4007C00000D095E14346012B00D094E15B46002B00D093E1684B5B681B68DA0BD2B2934503D1DB09FF22134005E0934501D9002301E080235B0052AA13711B0A5371FF231F
:4008000093710023D3710422CBE1012E00D078E14346012B00D077E15846FFF7C7FE02ABA22252009B18187059460520FFF7A6FD02AB4622FF329B181870443AFF3AB0E1C9
:40084000342A0DD1012E00D061E14346032B00D060E14C32002107A800F0D9FF80239946012E00D059E14346022B00D858E107A84844DA1E4821FF3102AB9C46614400F0AB
:40088000BDFF43464B449BB2832B00D04BE152AA93791B02527913439946FF2B00D90A27002F00D046E15B461B024B449BB29846314B5B681A68D3099BB2520601D001332F
:4008C0009BB2434500D939E12B4B1B78DBB2012B0AD8294B1878C0B24B4642465946FFF7EDFD0D2800D130E107A9404600F05CFA002800D130E100239946803398460A271D
:4009000000224EE1012E00D150E10427002248E1012E00D026E14346012B00D025E15846FFF744FE002800D022E15846FFF70CFD114B5A461A70002233E1012E00D01AE10A
:4009400043464B4496225200934200D916E107A84844424653A900F051FF4B4643449BB2994600221DE1C04684FDFFFF6E02000060180000C07F0000B40000204346002B19
:4009800000D0FEE004AA924B03CB03C253AA04AB03CB03C2002399460126082201E1012E00D0F1E04346032B00D0F0E052AA93791B02527913439A465B4619025144C9018F
:4009C0005346FF2B00D90A27002F00D0E2E080220020FFF787FC020001905B461B02534499B25B46002B1CD10B00FE3B9BB2012B17D80B00FF3B1A00531E9A41D3B20093D3
:400A000019000520FFF7BAFCC0B2019A121AD2B2934600990620FFF7B1FCC2B25B469A1AD2B2524252AB1A710122BAE0694B1878C0B2FFF7BBFD002802D18022664B1A6082
:400A400000F0D2F800F0D2FA04270022A9E0634B1B689A46002B00D19EE0012E00D09EE002AB1A7042465A8053AF03970C22002104A800F0CCFE04AB9B460697190002A848
:400A8000D0475B469A882623FF339A4203D953AB0699994207D0069B002B01D1002A05D1049BDFB27DE00E2700227AE00E27002277E0002275E00427002272E004270022ED
:400AC0006FE00C2700226CE00C27002269E00427002266E00427002263E00427002260E0042700225DE0092700225AE0002258E00427002255E00427002252E004270022FA
:400B00004FE0042700224CE00427002249E00427002246E00427002243E00427002240E0042700223DE000239946803398460327002236E080239846002232E00023994631
:400B4000803398460A2700222BE007000023994680339846002224E0002399468033984600221EE0042700221BE00427002218E00C27002215E00427002212E003270022B1
:400B80000FE0042700220CE00427002209E00427002206E0002204E00527002201E00527002252A93800FFF77BFB01E000239946002D00D141E5012E00D13EE59F239B00FB
:400BC0009D443CBC90469946A246AB46F0BDC046B4180000B4000020A80000205C01002010B500F0E9FB10BD10B500F0F5FB10BDF0B583B007000E00019200282DD0002950
:400C00002ED09A00D3185C0000F002FC002811D000F0FEFB0500AE2000F0DEFA00F0F8FB8542F5D1B54200D93500019B1D800023019308E0012000F0E5F9013C002CE3D101
:400C4000002510230193002404E03E1900F0DAFB30700134A542F8D804E00123019301E001230193019803B0F0BDC04670B50C001500002806D0002906D000F0DFFB2C80EB
:400C8000002002E0012000E0012070BD82B0134B0093134B0193134B6A461A601249134A1160C0461B681B0F1B07F0221206934204D10C4B1B68FF2018400DE0094B1B685F
:400CC0001B0F1B07A0221206934204D0054B1B68FF20184000E0002002B07047B6E9000060010020080010401600008004001040104B114A1A601149114A1160C0461B6831
:400D00001B0F1B07F0221206934204D1094B1B68FF2018400DE0074B1B681B0F1B07A0221206934204D0034B1B68FF20184000E00020704708001040B6E80000150000802A
:400D40000400104082B0134B0093134B0193134B6A461A601249134A1160C0461B681B0F1B07F0221206934204D10C4B1B68FF2018400DE0094B1B681B0F1B07A022120675
:400D8000934204D0054B1B68FF20184000E0002002B07047B6EA00006001002008001040170000800400104030B5A5B00400002323932293FF2872D8002970D0802202A881
:400DC00000F01CFD384B00937F230193374B6A461A603749374A1160C0461B681B0F1B07F0221206934204D1304B1B68FF2213400DE02E4B1B681B0F1B07A0221206934281
:400E000004D02A4B1B68FF22134000E000232393239B002B45D100F0A8FA0500FFF736FF2290229B002B02D1FFF762FF2390239B002B25D1204A0092009A240414430094F9
:400E40001A4A694611601D481A490860C0461268120F1207F02109068A4204D1134B1B68FF2213400BE0114A1268120F1207A02109068A4203D00D4B1B68FF221340239380
:400E8000229B002B07D1FFF75DFF2290229B002B01D0229B2393280000F06BFA01E004232393239825B030BDB6D70000080010400400008004001040B6D8000005000080BA
:400EC00070B5040000F051FA0500102C05D8104A136803218B43136016E0202C07D80C490B6803229343023A13430B600CE0302C07D807490B6803229343013A13430B6074
:400F000002E0002000F038F8280000F032FA70BD30001040024A1168024B0B401360704700000640FFFFFFBF034B18688023DB05184000D001207047000006401F231840E4
:400F40001E3B8340014A13607047C04600E100E01F2318401E3B8340014A13607047C04680E100E01F2318401E3B8340014A13607047C04680E200E001BE704770B5040095
:400F80000D00182802D90020FFF7F6FF1034A40080239B059C4664442068256070BDC04670B504000E00032902D90020FFF7E4FF182C02D90020FFF7DFFF03252540ED0045
:400FC000063500F0D2F9A408A400074B9C46644421680323AB4099430B003100A9401943216000F0C6F970BD00E400E0034A13681B041B0C02490B43136070470CED00E00D
:401000000400FA0510B5040006E0084B586800F0A3F9074B9C46644480231B029C42F4D8024B9868604300F097F910BDC00000200080FFFF30B583B000F0E0F8002849D05D
:4010400000F093F90400244B196889001C2319401831224B1B689B0803221340D940204B1A68204B1340204A4A438020C00184466244D20B013A5205520D1343A0225203C4
:401080001A431000192902D8184A13430CE0184BCB181B781A39174A525C9A18FF2A00D9FF229205030013430D4A1360124D2B6801933020FFF704FF104A13688021C90526
:4010C0000B4313601420FFF79DFF019B2B60200000F04FF903B030BD080F0340280003400800064000F800C040420F000000D43FCDF1FF0FBC180000300010400000064075
:40110000F0B583B0040018280BD01C2809D0202807D0242805D0282803D02C2801D0302849D100F022F90190FFF7FEFE002803D0FFF7F0FE012600E00026214A13680721F9
:401140008B4313601F4BE3181B78DBB21E4A13601E4A13688B4313601D4803687F22934319001C4BE3181B7813400B430360322000F0F2F8182C16D9114F3B680725AB43D5
:401180001A0023001C3B9B082B4013433B60322000F0E2F83A68AA432300183B9B082C001C4014433C60012E01D1FFF743FF019800F0DFF802E00020FFF7DEFE03B0F0BD90
:4011C000080F0340CDF1FF0F0C0F0340100F0340180F0340B4F1FF0F10B5034B1B7B584300F0BAF810BDC046C0000020024B1868800F80077047C0460C020640034B1B688E
:40120000002B01DA012000E00020704700000640014A024B1A6070476588EDAC3800034010B50400FFF7E2FFA0421AD0144A136803218B431360134B1B689B0F01D17C201D
:4012400001E086204000FFF7C7FF00F08EF80D4A13689B009B08A40FA4071C43146000F088F8074B1B6803229343064A1268920F01D1023200E001221343014A136010BD9F
:40128000140206400C02064010B5040000F06DF8054B1C4005490B68054A134023430B600B6800F066F810BD0404040010020640FBFBFBFF10B5244B1B685B0715D5234B2D
:4012C0001B685B070ED5224B5969042001401F4C22688A4322605A6982435A619B68002B00D098470420FFF7CFFF174B1B685B0518D5164B1B685B0510D5154B5969802227
:40130000D2001140114802688A4302605969114A0A405A61DB68002B00D098478020C000FFF7B2FF084B1B685B030CD5074B1B685B0304D5064B1B69002B00D098478020E2
:40134000C002FFF7A1FF10BD10020640D400002078010020FFFBFFFF0230800803D001300238FCD1C046C0467047EFF3108072B6704780F31088704710B50820FFF7DEFD12
:4013800010BDC04610B500F0C9F810BD10B500F0E1F810BD10B500F05DF810BD10B5054A1368802109060B431360FFF7E5FFFFF7E9FF10BD0000074010B5064B1B78002B45
:4013C00004D1FFF7E7FF0122024B1A70FFF7E6FF10BDC0469001002010B50820FFF7B8FDFFF7D4FF054A13685B005B0813600022034B1A600820FFF7B5FD10BD00000740B9
:40140000880F0740014B18687047C04640030740024B1B681F2018407047C04608030740044B1B681F221340102BF9D0024B18607047C046080207404002074070B5060054
:401440000D00002403E0305DFFF7EAFF0134AC42F9D370BD10B51B4A1B4B1A6000241B4B1C601B4A1B4B1A601B4A1C4B1A600F231B490B601B490C6001201B4908601B4913
:401480000A601B4A13601B4A1B4B1A600730FFF75FFD03210820FFF783FD18490820FFF76DFD174B1C60174B1C60174B1C60174B1C60174B1C60174B1C601A68164B1A80C0
:4014C00010BDC0460B080002000007404000074001020A0048000740070000800003074004030740100307404400074000020740040207400400000250000740B915000095
:40150000880E0740C80E0740480F0740080F0740C80F0740880F074098010020094A1368F0218B4360390B4313601168064B0B40902109020B431360044B1A88044B1A60AD
:401540007047C04600030240FF0FFFFF98010020880F074010B50D4C2368F022934323600B4B186880235B021840431E9841C0B200F016F82268074B13402360064B1A6855
:40158000E423DB001340054A138010BD0003024050000740FF0FFFFF880F07409801002004490A68D2B208239A43C00018401043086070470003044010B5034B1B68002BEB
:4015C00000D0984710BDC0469401002003460B437FD4002243088B4274D303098B425FD3030A8B4244D3030B8B4228D3030C8B420DD3FF22090212BA030C8B4202D31212EE
:40160000090265D0030B8B4219D300E0090AC30B8B4201D3CB03C01A5241830B8B4201D38B03C01A5241430B8B4201D34B03C01A5241030B8B4201D30B03C01A5241C30A3B
:401640008B4201D3CB02C01A5241830A8B4201D38B02C01A5241430A8B4201D34B02C01A5241030A8B4201D30B02C01A5241CDD2C3098B4201D3CB01C01A524183098B42F9
:4016800001D38B01C01A524143098B4201D34B01C01A524103098B4201D30B01C01A5241C3088B4201D3CB00C01A524183088B4201D38B00C01A524143088B4201D34B0092
:4016C000C01A5241411A00D201465241104670475DE0CA0F00D04942031000D34042534000229C4603098B422DD3030A8B4212D3FC22890112BA030A8B420CD38901921107
:401700008B4208D3890192118B4204D389013AD0921100E08909C3098B4201D3CB01C01A524183098B4201D38B01C01A524143098B4201D34B01C01A524103098B4201D368
:401740000B01C01A5241C3088B4201D3CB00C01A524183088B4201D38B00C01A5241D9D243088B4201D34B00C01A5241411A00D20146634652415B10104601D34042002BE7
:4017800000D54942704763465B1000D3404201B5002000F005F802BD0029F8D016E770477047C046014B18687047C046380100200E4B70B500251E000D4CE41AA410A54230
:4017C00004D0AB00F35898470135F8E700F084F8084B00251E00084CE41AA410A54204D0AB00F35898470135F8E770BDE4180000E4180000E4180000EC180000002310B571
:401800009A4203D0CC5CC4540133F9E710BD03008218934202D019700133FAE770470000001A000040000000000000004A0400008A0300009A030000AA030000BA03000003
:40184000CA030000DA030000FA030000EA0300000A0400001A0400002A0400003A0400003A070000BE0700000A0800004008000004090000100900003A0900007C090000EE
:40188000400800009E0900002C0A0000FC0600004E0A00004E0A00004E0A00004E0A00004E0A00004E0A00004E0A00004E0A00005E070000AC11011C003C0101EEDBC9B979
:4018C000AA9B8E82766B60564D443B332C241D17100A044300000000F8B5C046F8BC08BC9E46704729010000D5010000F8B5C046F8BC08BC9E467047010100001019000061
:40190000B0000020900000006000000000000000000000000200000020180000241800000100000000005046A08C0000240000000051250204040400000000000000000006
:40194000000000000000000000000000000000000000000000000000D31800000000000000000000000000000000000000000000000000000000000000000000000000007C
:40198000000000000000000000000000000000000000000000000000D80000200000000000000000000000000000000000000000000000000000000000000000000000002F
:4019C00000000000000000000000000000000000000000000000000000000000000000000000000000000000000000000000000000000000000000000000000000000000E7
:401A000000000000000000000000000000000000000000000000000000000000000000000000000000000000000000000000000000000000000000000000000000000000A6
:401A40000000000000000000000000000000000000000000000000000000000000000000000000000000000000000000000000000000000000000000000000000000000066
:401A80000000000000000000000000000000000000000000000000000000000000000000000000000000000000000000000000000000000000000000000000000000000026
:407FC000000000000000000000000000000000000000010002010000000000000000000000000000000000000000000000000000000000000000000000000000000000007D
:0200000490303A
:020000002A8D47
:0200000490402A
:200000000000000000000000000000000000000000000000000000000000000000000000E0
:0200000490501A
:0C00000000021C0111AC00011C093C397D
:0200000490600A
:0100000001FE
:00000001FF