:400000000020002011000000CD010000CD01000010B500F0CFFA00F0E1F8C04610B51222124B1A60242001F031F8114A114B1A60C8225201104B1A60104A114B1A60802243
:400040001206104B1A608022D2020F4B1A6040220E4B1A600E49072000F044FF072000F021FF00220B4B1A6010BDC046300010400600008004010B400003014040FF00800E
:400080000000014008010B4000010B400C010140E11100000C020B4010B572B600240FE01A486200131959000B00411889881A5AC31858880004104300F082F80134E4B24D
:4000C000012CEDD9124A134B1A60EE221202124B1A6099231B04114A1360114A1360114A117806230B43DBB21370A0230E4A13600E490F4A11600F4A1360D82212010E4B1B
:400100001A60FFF78BFF00F04BF810BD5C17000000009999000002400003024000500F4030500F4000700F40000004400010C70008000440180004400803044010B5064C43
:400140002378002B07D1054B002B02D0044800E000BF0123237010BD580100200000000058170000084B10B5002B03D00749084800E000BF07480368002B00D110BD064B14
:40018000002BFBD09847F9E7000000005C01002058170000C80000200000000062B6FEE70323044A1360044A13600022034B1A607047C0463000304030003140000E3F409C
:4001C00010B50A00002101F0BAFA10BD10B501F081FA03680C2B00D1FEE7FEE770B50F4E0F4D13E029686B68AC68002202E001C901C30432A242FAD1E868002202E00021FA
:4002000002C304328242FAD11035013E002EE9D101F066FAFFF7C2FFFEE7C046010000006818000010B5114A136801218B43136000230AE0032B03D89A000D49505800E0C8
:400240000C4899000C4A885001332F2BF2D9FFF723FF0A4B1B68002B02D10022074B1A60024A116801230B43136010BD0000104000000000CD01000000000020C000002099
:4002800070B500291FD00E00104A8B1BC45C00230CE015006540ED0704D552080C4D6A4092B200E0520864080133DBB2072BF0D9013EB6B2002EE8D1D24392B2100280B20F
:4002C000120A104300E0002070BDC046FFFF00000884FFFF30B5002307E01C182478E4B2CD5CAC4205D101339BB29342F5D3002000E0022030BDC0460047C046F0B583B03A
:400300000D006B469E1DDA8001230B7048701400AA70130ACB70171DB9B22800FFF7B0FFE855631D000AE854A31D1722EA540734A1B296233200280000F0D2FC03B0F0BDA8
:4003400070B505000E001400002802D0002000F0C7FD002005E0013CAB19E3181B781818C0B2002CF7D170BD70B5A0B0C5097F2304009C43002304E01A5D6E46F254013398
:400380009BB27F2BF8D97F2318406B461B5C8B4206D06B4619542804000C694600F0B4FC20B070BD70B50500012811D80DE0611B4B425941C9B2E0014042064B9C4660448D
:4003C000FFF7D2FF0134E4B200E00024012CEED970BDC046D0FF000010B50C2863D88000404B1B589F464B06591ACB013E4A9446634401225CE04B06591ACB013B4A9446F3
:400400006344042254E04B06591ACB01384A9446634402224CE04B06591ACB01354A94466344042244E04B06591ACB01324A9446634401223CE04B06591ACB012F4A94464F
:400440006344012234E04B06591ACB012C4A9446634402222CE04B06591ACB01294A94466344022224E04B06591ACB01264A9446634402221CE04B06591ACB01234A9446C3
:400480006344042214E04B06591ACB01204A9446634401220CE04B06591ACB011D4A94466344042204E0002000F01AFD02220023012A02D11878C0B200E00020022A03D101
:4004C0001978587800020843042A09D11A785878000210439A7812041043DB781B06184310BDC04668170000C0FF0000C1FF0000C5FF0000C9FF0000D0FF0000D1FF000049
:40050000D6FF0000D2FF0000D4FF0000D8FF0000DCFF0000E0FF0000F0B5474680B40500884616001F00012820D801000320FFF753FF013084B2FF204000001B80B2022180
:40054000491BC9B200F0DAFF83B2E3189BB2013B9BB2B44201D8B3420AD24346002B09D1074B5D1BAF4207D0002006E00D2004E00D2002E0002000E00D2004BC9046F0BD77
:40058000FF01000010B500210520FFF725FFC4B201210520FFF720FFC0B2002C02D0002804D106E0002803D0012002E0032000E0022010BD10B5124B1B68DB0602D4002283
:4005C000104B1A600F4B1B68802B18D10E4B1C78E4B2012C02D9FFF7D5FF04000022094B1A6021000220FFF7F7FE002807D0012C05D821000220FFF7EFFEFFF77DFE10BDD1
:4006000000030B40C0000020CC00002070B5050001000320FFF7E0FE441CE40129000420FFF7DAFE2418012D1FD829000320FFF7D3FE0130C0010023002608E001784A1EA6
:40064000D2B2FD2A00D801265B18DBB20130A042F4D35B42DCB229000120FFF7BDFE844205D1002E05D1062004E0062002E0062000E0002070BDC046F0B55F4656464D464C
:400680004446F0B4C64CA544050000F0E3FA62B60023994600260A249846002D01D1FF2300E02B00BF4A02A98C4662449621490052A800F0D7FA002D01D0013CE4B2002CE3
:4006C00001D00028E9D1002800D0A7E2B54B02AA944663441B88062B24D952AA1278012A22D152A9CA78120289780A439046110007329A421AD896235B009A4218D84A1D50
:4007000052AB9F5C3A02081D1F5C174306315B5C172B0FD181B252A8FFF7B2FD87420BD100270AE0042708E0042706E0032704E0032702E0042700E00827002F00D0EEE1AD
:4007400052AB1A7993465A781300313BD9B2142900D9B2E18B009449CB589F46012E00D0DFE14346012B00D0DEE15B46012B00D9DDE15846FFF74AFF002800D0DAE15B4683
:400780005B065A469B1AD901884B9C466144382253A800F0CBFF382239E2012E00D0CCE14346002B00D0CBE1814B1878C0B2FFF72DFF4342434152AA1371012227E2012E1B
:4007C00000D0C0E14346032B02D0832B00D0BDE152AA93791B02527913439A464346032B08D0DA1E4821FF3102AB9C46614407A800F09CFF5B46002B00D0AAE1580250441A
:40080000C0016C4B9A4500D90A27002F00D0A3E1802207A9FFF75EFD07000022F7E1012E00D09BE14346012B00D09AE15B46002B00D099E15E4B5B681B681A0CD2B293452E
:4008400003D1DB09DB05DB0D05E0934501D9002301E080239B0052AA13711B0A5371FF239371FE3BD3710422D1E1012E00D07EE14346012B00D07DE15846FFF7C7FE02ABF4
:40088000A22252009B18187059460520FFF7A4FD02AB4622FF329B181870443AFF3AB6E1342A0DD1012E00D067E14346032B00D066E14C32002107A800F041FF802399466C
:4008C000012E00D05FE14346022B00D85EE107A84844DA1E4821FF3102AB9C46614400F025FF43464B449BB2832B00D051E152AA93791B025279134399462E4B994500D96E
:400900000A27002F00D04BE15B465B029BB24B449BB29846264B5B681A68D3099BB2520601D001339BB2434500D93DE1204B1B78DBB2012B0AD81E4B1878C0B24B46424631
:400940005946FFF7E9FD0D2800D134E107A9404600F0DAF9002800D134E100239946803398460A27002252E1012E00D154E1042700224CE1012E00D02AE14346012B00D083
:4009800029E15846FFF742FE002800D026E15846FFF708FD064B5A461A70002237E1C04684FDFFFF6E0200009C170000C0FF0000CC000020FF010000012E00D011E143463F
:4009C0004B4496225200934200D90DE107A84844424653A900F0AAFE4B4643449BB29946002214E14346002B00D000E104AA934B03CB03C253AA04AB03CB03C2002399464B
:400A00000126082203E1012E00D0F3E04346032B00D0F2E052AA93791B02527913439A465B4659025144C901854B9A4500D90A27002F00D0E4E080220020FFF781FC020022
:400A400001905B465B029BB2534499B25B46002B1DD10B00FF3BFF3B9BB2012B17D8794BCB181A00531E9A41D3B2009319000520FFF7B2FCC0B2019A121AD2B293460099E1
:400A80000620FFF7A9FCC2B25B469A1AD2B2524252AB1A710122BAE06B4B1878C0B2FFF7B5FD002802D18022684B1A6000F0D6F800F050FA04270022A9E0654B1B689A4644
:400AC000002B00D19EE0012E00D09EE002AB1A7042465A8053AF03970C22002104A800F02EFE04AB9B460697190002A8D0475B469A882623FF339A4203D953AB069999423E
:400B000007D0069B002B01D1002A05D1049BDFB27DE00E2700227AE00E27002277E0002275E00427002272E0042700226FE00C2700226CE00C27002269E00427002266E0D0
:400B40000427002263E00427002260E0042700225DE0092700225AE0002258E00427002255E00427002252E0042700224FE0042700224CE00427002249E00427002246E009
:400B80000427002243E00427002240E0042700223DE000239946803398460327002236E080239846002232E000239946803398460A2700222BE007000023994680339846B9
:400BC000002224E0002399468033984600221EE0042700221BE00427002218E00C27002215E00427002212E0032700220FE0042700220CE00427002209E00427002206E029
:400C0000002204E00527002201E00527002252A93800FFF773FB01E000239946002D00D13BE5012E00D138E59F239B009D443CBC90469946A246AB46F0BDC046F0170000FE
:400C4000FF01000001FEFFFFCC000020C00000207401002010B500F047FB10BD10B500F053FB10BDF0B583B007000E00019200282DD000292ED09A00D3185C0000F060FB8A
:400C8000002811D000F05CFB0500AE2000F03EFA00F056FB8542F5D1B54200D93500019B1D800023019308E0012000F05FF9013C002CE3D1002510230193002404E03E196D
:400CC00000F038FB30700134A542F8D804E00123019301E001230193019803B0F0BDC04670B50C001500002806D0002906D000F03DFB2C80002002E0012000E0012070BDA9
:400D0000002070470020704730B5A5B004000023239322933C4B984271D800296FD0802202A800F003FD384B9C4201D9374B00E0374B00937F230193364B6A461A603649D9
:400D4000364A1160C0461B681B0F1B07F0221206934204D12F4B1B68FF2213400DE02D4B1B681B0F1B07A0221206934204D0294B1B68FF22134000E000232393239B002BA4
:400D80003FD100F08AFA0500FFF7BAFF2290239B002B25D1224A0092009A2404144300941C4A694611601F481C490860C0461268120F1207F02109068A4204D1154B1B68A7
:400DC000FF2213400BE0134A1268120F1207A02109068A4203D00F4B1B68FF2213402393229B002B07D1FFF78DFF2290229B002B01D0229B2393280000F053FA01E0042380
:400E00002393239825B030BDFF010000B6D70001B6D70000080010400400008004001040B6D800000500008070B5040000F035FA0500102C05D8104A136803218B43136081
:400E400016E0202C07D80C490B6803229343023A13430B600CE0302C07D807490B6803229343013A13430B6002E0002000F038F8280000F016FA70BD30001040024A1168F4
:400E8000024B0B401360704700002240FFFFFFBF034B18688023DB05184000D001207047000022401F2318401E3B8340014A13607047C04600E100E01F2318401E3B8340F7
:400EC000014A13607047C04680E100E01F2318401E3B8340014A13607047C04680E200E001BE704770B504000D001F2802D90020FFF7F6FF1034A40080239B059C46644435
:400F00002068256070BDC04670B504000E00032902D90020FFF7E4FF1F2C02D90020FFF7DFFF03252540ED00063500F0B6F9A408A400074B9C46644421680323AB4099432A
:400F40000B003100A9401943216000F0AAF970BD00E400E0034A13681B041B0C02490B43136070470CED00E00400FA0510B5040006E0084B586800F087F9074B9C46644430
:400F800080231B029C42F4D8024B9868604300F07BF910BDD80000200080FFFF30B583B000F0C8F800285AD000F077F9040000230AE02C4A12683F210A402B49C95C8A42A6
:400FC00001D1033303E001332D2BF2D90323274A1268D20606D1254802681F218A4313390A430260224A1168224A0A40224959438020C00184466144C90B01394905490DEC
:401000000A43A021490311430800192B02D81B4B1A430EE01A4A9A1812781A3B1249C9183023CB5CD318FF2B00D9FF239B0502001A430F4B1A60134D2B6801933020FFF7D0
:40104000F3FE114A13688021C9050B4313601420FFF78CFF019B2B60200000F022F903B030BDC0462CFF0B40F817000034FF0B400800224000F800C040420F000000D43F03
:40108000CDF1FF0F300010400000224030B587B0040000F002F90500FFF7FAFE002803D0FFF7ECFE012100E00021104B1B6800930F4B1B680193033C0E4B1B5D02930E4BA6
:4010C0001B68039304AA0D4B04936B4605930C4B1A600C480C4A10601B68012901D1FFF75DFF280000F0DDF807B030BD08010B4000010B40F817000030001040B6EA0000D5
:4011000008001040170000800400104010B5034B1B7B584300F0B8F810BDC046D8000020034B1868C0231B02184000D00120704700010B40034B1B68002B01DA012000E0CB
:40114000002070470000224010B500F0A6F8044A1368C02109020B43136000F0A2F810BD00010B4010B500F098F808490A68084B1A408024E40122430A600A681340802256
:40118000120213430B6000F08CF810BD00010B40FF3FFFFF70B5050000F07FF80400FFF7BFFF002803D0FFF7DDFF012100E0002108482840084A1568084B2B401843106048
:4011C0001368012901D1FFF7BFFF200000F069F870BDC0460404040010020B40FBFBFBFF10B5244B1B685B0715D5234B5B685B070ED5224B596A042001401F4C62688A43B7
:4012000062605A6A82435A629B69002B00D098470420FFF7BFFF174B1B685B0518D5164B5B685B0510D5154B596A8022D2001140114842688A434260596A114A0A405A62D8
:40124000DB69002B00D098478020C000FFF7A2FF084B1B685B030CD5074B5B685B0304D5064B1B6A002B00D098478020C002FFF791FF10BD10020B40EC0000207801002091
:40128000FFFBFFFF000000000230800803D00138FDD1C046C046C0467047EFF3108072B6704780F31088704710B50920FFF7FAFD10BDC04610B500F0C9F810BD10B500F020
:4012C000E1F810BD10B500F05DF810BD10B5054A1368802109060B431360FFF7E5FFFFF7E9FF10BD0000254010B5064B1B78002B04D1FFF7E7FF0122024B1A70FFF7E6FF2D
:4013000010BDC046A001002010B50920FFF7D4FDFFF7D4FF054A13685B005B0813600022034B1A600920FFF7D1FD10BD00002540880F2540014B18687047C046400325406A
:40134000024B1B681F2018407047C04608032540044B1B681F221340102BF9D0024B18607047C046080225404002254070B506000D00002403E0305DFFF7EAFF0134AC4209
:40138000F9D370BD10B51B4A1B4B1A6000241B4B1C601B4A1B4B1A601B4A1C4B1A600F231B490B601B490C6001201B4908601B490A601B4A13601B4A1B4B1A600830FFF7C2
:4013C0007BFD03210920FFF79FFD18490920FFF789FD174B1C60174B1C60174B1C60174B1C60174B1C60174B1C601A68164B1A8010BDC0460B0800020000254040002540ED
:4014000001020A0048002540070000800003254004032540100325404400254000022540040225400400000250002540E9140000880E2540C80E2540480F2540080F25407E
:40144000C80F2540880F2540A8010020094A1168094B0B40902109040B43136013681B011B09902109060B431360044B1A88044B1A60704700000240FFFF0FFFA8010020BD
:40148000880F254010B50D4C22680D4B134023600C4B186880235B021840431E9841C0B200F016F823681B011B092360064B1A68E423DB001340054A138010BD000002403A
:4014C000FFFF0FFF50002540880F2540A801002004490A687F231A40C301D8B2104308607047C0460000044010B5034B1B68002B00D0984710BDC046A401002003460B4302
:401500007FD4002243088B4274D303098B425FD3030A8B4244D3030B8B4228D3030C8B420DD3FF22090212BA030C8B4202D31212090265D0030B8B4219D300E0090AC30BB4
:401540008B4201D3CB03C01A5241830B8B4201D38B03C01A5241430B8B4201D34B03C01A5241030B8B4201D30B03C01A5241C30A8B4201D3CB02C01A5241830A8B4201D3BB
:401580008B02C01A5241430A8B4201D34B02C01A5241030A8B4201D30B02C01A5241CDD2C3098B4201D3CB01C01A524183098B4201D38B01C01A524143098B4201D34B01BD
:4015C000C01A524103098B4201D30B01C01A5241C3088B4201D3CB00C01A524183088B4201D38B00C01A524143088B4201D34B00C01A5241411A00D20146524110467047D8
:401600005DE0CA0F00D04942031000D34042534000229C4603098B422DD3030A8B4212D3FC22890112BA030A8B420CD3890192118B4208D3890192118B4204D389013AD03B
:40164000921100E08909C3098B4201D3CB01C01A524183098B4201D38B01C01A524143098B4201D34B01C01A524103098B4201D30B01C01A5241C3088B4201D3CB00C01AAC
:40168000524183088B4201D38B00C01A5241D9D243088B4201D34B00C01A5241411A00D20146634652415B10104601D34042002B00D54942704763465B1000D3404201B5FC
:4016C000002000F005F802BD0029F8D016E770477047C046014B18687047C046540100200E4B70B500251E000D4CE41AA410A54204D0AB00F35898470135F8E700F0A2F8C3
:40170000084B00251E00084CE41AA410A54204D0AB00F35898470135F8E770BD50180000501800005018000058180000002310B59A4203D0CC5CC4540133F9E710BD0300D8
:401740008218934202D019700133FAE77047000080190000D00000000000000000300F40000400400F400004A6040000E6030000F60300000604000016040000260400007A
:40178000360400005604000046040000660400007604000086040000960400009A0700001E0800006A080000A00800006809000074090000B8090000E4090000A00800001E
:4017C000060A0000980A00005C070000BA0A0000BA0A0000BA0A0000BA0A0000BA0A0000BA0A0000BA0A0000BA0A0000BE070000A1112511003C0101030405060708090A95
:401800000B0C0E0F101112131415161718191B1C1D1E1F2021222325262728292A2B2E2F3031323334350000EEDBC9B9AA9B8E82766B60564D443B332C241D17100A0443D1
:4018400000000000F8B5C046F8BC08BC9E4670476501000025020000F8B5C046F8BC08BC9E4670473D01000078180000C800002090000000580000000000000002000000AF
:4018800050170000541700000100000000005046A08C00002400000000512502F00000000404040000000000000000000000000000000000000000000000000000000000FB
:4018C000000000003F180000000000000000000000000000000000000000000000000000000000000000000000000000000000000000000000000000000000000000000091
:4019000000000000F4000020000000000000000000000000000000000000000000000000000000000000000000000000000000000000000000000000000000000000000093
:401940000000000000000000000000000000000000000000000000000000000000000000000000000000000000000000000000000000000000000000000000000000000067
:401980000000000000000000000000000000000000000000000000000000000000000000000000000000000000000000000000000000000000000000000000000000000027
:4019C00000000000000000000000000000000000000000000000000000000000000000000000000000000000000000000000000000000000000000000000000000000000E7
:401A000000000000000000000000000000000000000000000000000000000000000000000000000000000000000000000000000000000000000000000000000000000000A6
:40FFC00000000000000000000000000000000000000001000201000000000000000000000000000000000000000000000000000000000000000000000000000000000000FD
:0200000490303A
:0200000008E610
:0200000490402A
:4000000000000000000000000000000000000000000000000000000000000000000000000000000000000000000000000000000000000000000000000000000000000000C0
:0200000490501A
:0C0000000002112511A10001112D1A872A
:0200000490600A
:0100000001FE
:00000001FF