:400000000020002011000000CD010000CD01000010B500F075FD00F0E1F8C04610B51222124B1A60302000F05FFA114A114B1A6088229201104B1A60104A114B1A6080225F
:400040001206104B1A608022D2020F4B1A6040220E4B1A600E49082000F066F9082000F043F900220B4B1A6010BDC046300010400600008004010B400003014040FF0080D4
:400080000000014008010B4000010B40080101402D0700000C020B4010B572B600240FE01A486200131959000B00411889881A5AC31858880004104300F082F80134E4B20F
:4000C000012CEDD9124A134B1A60EE221202124B1A6099231B04114A1360114A1360114A117806230B43DBB213700A230E4A13600E490F4A11600F4A1360D82212010E4BB1
:400100001A60FFF78BFF00F04BF810BDA818000099990000000102400003024010500F4070500F4000700F4000010440710C000008010440180104400803044010B5064CFC
:400140002378002B07D1054B002B02D0044800E000BF0123237010BD5801002000000000A4180000084B10B5002B03D00749084800E000BF07480368002B00D110BD064BC7
:40018000002BFBD09847F9E7000000005C010020A4180000C80000200000000062B6FEE70323044A1360044A13600022034B1A607047C0463000304030003140000E3F404F
:4001C00010B50A00002101F060FB10BD10B501F027FB03680C2B00D1FEE7FEE770B50F4E0F4D13E029686B68AC68002202E001C901C30432A242FAD1E868002202E00021AC
:4002000002C304328242FAD11035013E002EE9D101F00CFBFFF7C2FFFEE7C046010000009C19000010B5114A136801218B43136000230AE0032B03D89A000D49505800E0EC
:400240000C4899000C4A885001332F2BF2D9FFF723FF0A4B1B68002B02D10022074B1A60024A116801230B43136010BD0000104000000000CD01000000000020C000002099
:4002800000230AE00D4A12683F210A400C49C95C8A4201D1033303E001332D2BF2D9032308490868084A02400A60084A944663441B78DBB2064A13607047C0462CFF0B4060
:4002C000B418000000002240FFFFFFBF4DF3FF0F28FF0B40034B18688023DB05184000D001207047000022401F2318401E3B8340014A13607047C04600E100E01F23184015
:400300001E3B8340014A13607047C04680E100E01F2318401E3B8340014A13607047C04680E200E001BE704770B504000D001F2802D90020FFF7F6FF1034A40080239B056E
:400340009C4664442068256070BDC04670B504000E00032902D90020FFF7E4FF1F2C02D90020FFF7DFFF03252540ED00063500F07CFFA408A400074B9C4664442168032367
:40038000AB4099430B003100A9401943216000F070FF70BD00E400E0034A13681B041B0C02490B43136070470CED00E00400FA0510B5040006E0084B586800F04DFF074B27
:4003C0009C46644480231B029C42F4D8024B9868604300F041FF10BDCC0000200080FFFF70B582B000F04CF900285DD000F03DFF050000230AE02D4A12683F210A402C4983
:40040000C95C8A4201D1033303E001332D2BF2D903230021274A1160274A1268D20606D1254802681F318A4313390A430260234C2168234A1140234A5A438023DB019C46B6
:400440006244D20B013A5205520D0B001343A0225203134323601C4B1B680193302000F09FFF1A4A13688021C9050B4313602668174B1E40002407E00120FFF799FF103400
:40048000A30533430D4A1360EE2CF5D90120FFF78FFFFF239B051E43084B1E60019A0A4B1A60280000F0E5FE02B070BD2CFF0B40B418000028FF0B4034FF0B4008002240F3
:4004C00000F800C040420F003000104000002240FFFF3FC010B5034B1B7B584300F0BCFE10BDC046CC000020F0B557464E464546E0B482B0040000F0B8FE0190FFF7EAFEE7
:40050000002803D0FFF7BCFE012700E00027E61E2D2E75D8424B1B78DBB29C4208D8414B1B78DBB29A46404B1B78DBB2994631E03E4B1B78DBB29C4208D83D4B1B78DBB294
:400540009A463C4B1B78DBB2994623E03A4B1B78DBB29C4208D8394B1B78DBB29A46384B1B78DBB2994615E0364B1B78DBB29C4208D8354B1B78DBB29A46344B1B78DBB236
:40058000994607E0324B1B78DBB29A46314B1B78DBB29946304B9B5D98462F2B09D92A2C07D919222D4B1A60052000F055FE192503E02A4B1D683F231D40454506D9264B71
:4005C0009A5D264B1A60052000F046FE214B9C4664442378DBB2224A1360224B52461A60214B4A461A600520FFF774FF45450AD2194B9A5D194B1A60052000F02DFE02E07F
:400600000020FFF78FFE012F01D1FFF7E9FE019800F02FFE02B01CBC90469946A246F0BD40F3FF0F41F3FF0F42F3FF0F43F3FF0F44F3FF0F45F3FF0F46F3FF0F47F3FF0F8A
:4006400048F3FF0F49F3FF0F4AF3FF0F4BF3FF0F4CF3FF0F4DF3FF0FB41800002CFF0B4028FF0B401CFF0B4020FF0B40034B1868C0231B02184000D00120704700010B4017
:40068000034B1B68002B01DA012000E0002070470000224010B500F0E8FD044A1368C02109020B43136000F0E4FD10BD00010B4010B500F0DAFD08490A68084B1A4080248F
:4006C000E40122430A600A6813408022120213430B6000F0CEFD10BD00010B40FF3FFFFF70B5050000F0C1FD0400FFF7BFFF002803D0FFF7DDFF012100E0002108482840C2
:40070000084A1568084B2B40184310601368012901D1FFF7BFFF200000F0ABFD70BDC0460404040010020B40FBFBFBFF10B5244B1B685B0715D5234B5B685B070ED5224B0C
:40074000596A042001401F4C62688A4362605A6A82435A629B69002B00D098470420FFF7BFFF174B1B685B0518D5164B5B685B0510D5154B596A8022D2001140114842680C
:400780008A434260596A114A0A405A62DB69002B00D098478020C000FFF7A2FF084B1B685B030CD5074B5B685B0304D5064B1B6A002B00D098478020C002FFF791FF10BDCB
:4007C00010020B40E000002074010020FFFBFFFF70B500291FD00E00104A8B1BC45C00230CE015006540ED0704D552080C4D6A4092B200E0520864080133DBB2072BF0D90B
:40080000013EB6B2002EE8D1D24392B2100280B2120A104300E0002070BDC046FFFF00000884FFFF30B5002307E01C182478E4B2CD5CAC4205D101339BB29342F5D30020E3
:4008400000E0022030BDC0460047C046F0B583B00D006B469E1DDA8001230B7048701400AA70130ACB70171DB9B22800FFF7B0FFE855631D000AE854A31D1722EA540734CD
:40088000A1B296233200280000F0D4FC03B0F0BD70B505000E001400002802D00020FFF741FD002005E0013CAB19E3181B781818C0B2002CF7D170BD70B5C0B0050AFF23FB
:4008C00004009C43002304E01A5D6E46F25401339BB2FF2BF8D9FF2318406B461B5C8B4206D06B4619542804000C694600F0C8FC40B070BD70B50500012811D80DE0611B61
:400900004B425941C9B220024042064B9C466044FFF7D2FF0134E4B200E00024012CEED970BDC046D0FF000010B50C2863D88000404B1B589F460B06591A0B023E4A944684
:40094000634401225CE00B06591A0B023B4A94466344042254E00B06591A0B02384A9446634402224CE00B06591A0B02354A94466344042244E00B06591A0B02324A9446DA
:40098000634401223CE00B06591A0B022F4A94466344012234E00B06591A0B022C4A9446634402222CE00B06591A0B02294A94466344022224E00B06591A0B02264A94464F
:4009C000634402221CE00B06591A0B02234A94466344042214E00B06591A0B02204A9446634401220CE00B06591A0B021D4A94466344042204E00020FFF794FC022200239C
:400A0000012A02D11878C0B200E00020022A03D11978587800020843042A09D11A785878000210439A7812041043DB781B06184310BDC046E4180000C0FF0000C1FF0000B1
:400A4000C5FF0000C9FF0000D0FF0000D1FF0000D6FF0000D2FF0000D4FF0000D8FF0000DCFF0000E0FF0000F0B5474680B40500884616001F0001281FD801000320FFF799
:400A800053FF013084B2FE20001B80B20221491BC9B200F0D9FD83B2E3189BB2013B9BB2B44201D8B3420AD24346002B09D1FF335D1BAF4207D0002006E00D2004E00D2060
:400AC00002E0002000E00D2004BC9046F0BDC04610B500210520FFF727FFC4B201210520FFF722FFC0B2002C02D0002804D106E0002803D0012002E0032000E0022010BD60
:400B000010B5124B1B68DB0602D40022104B1A600F4B1B68802B18D10E4B1C78E4B2012C02D9FFF7D5FF04000022094B1A6021000220FFF7F9FE002807D0012C05D821004E
:400B40000220FFF7F1FEFFF77FFE10BD00030B40C0000020E800002070B5050001000320FFF7E2FE441C240229000420FFF7DCFE2418012D1FD829000320FFF7D5FE01308A
:400B800000020023002608E001784A1ED2B2FD2A00D801265B18DBB20130A042F4D35B42DCB229000120FFF7BFFE844205D1002E05D1062004E0062002E0062000E000209D
:400BC00070BDC046F0B55F4656464D464446F0B4C94CA544050000F0E7FA62B60023994600260A249846002D01D1FF2300E02B00C24A02A98C4662449621490052A800F0B6
:400C0000DBFA002D01D0013CE4B2002C01D00028E9D1002800D0AFE2B84B02AA944663441B88062B24D952AA1278012A22D152A9CA78120289780A439046110007329A4266
:400C40001AD896235B009A4218D84A1D52AB9F5C3A02081D1F5C174306315B5C172B0FD181B252A8FFF7B4FD87420BD100270AE0042708E0042706E0032704E0032702E035
:400C8000042700E00827002F00D0F1E152AB1A7993465A781300313BD9B2142900D9B5E18B009749CB589F46012E00D0E2E14346012B00D0E1E15B46012B00D9E0E15846B7
:400CC000FFF74AFF002800D0DDE15B461B065A469B1A19028B4B9C466144382253A800F0CBFD382241E2012E00D0CFE14346002B00D0CEE1844B1878C0B2FFF72DFF43428C
:400D0000434152AA137101222FE2012E00D0C3E14346032B04D00423FF33984500D0BEE152AA93791B02527913439A464346032B08D0DA1E4821FF3102AB9C46614407A87F
:400D400000F09AFD5B46002B00D0ABE11802504400025346FF2B00D90A27002F00D0A4E18022520007A9FFF75DFD07000022FCE1012E00D09BE14346012B00D09AE15B46AD
:400D8000002B00D099E1604B5B681B681A0CD2B2934503D11B0AFF22134005E0934501D9002301E080235B0052AA13711B0A5371FF2393710023D3710422D6E1012E00D073
:400DC0007EE14346012B00D07DE15846FFF7C4FE02ABA22252009B18187059460520FFF7A3FD02AB4622FF329B181870443AFF3ABBE1342A0ED1012E00D067E14346032BF4
:400E000000D066E1CC32002107A800F03EFD80235B009946012E00D05EE14346022B00D85DE107A84844DA1E4821FF3102AB9C46614400F021FD43464B449BB20422FF32F1
:400E4000934200D04EE152AA93791B02527913439946FF2B00D90A27002F00D04AE15B461B024B449BB29846274B5B681A68130A9BB2FF21114201D001339BB2434500D95C
:400E80003DE1214B1B78DBB2012B0AD81E4B1878C0B24B4642465946FFF7E6FD0D2800D135E107A9404600F0EBF9002800D136E1002399460133FF3398460A27002254E17A
:400EC000012E00D156E1042700224EE1012E00D02CE14346012B00D02BE15846FFF73CFE002800D028E15846FFF704FD064B5A461A70002239E1C04684FDFFFF6E02000092
:400F000018190000C0FF0000E8000020012E00D015E143464B4496225200934200D911E107A84844424653A900F0A6FC4B4643449BB29946002218E14346002B00D004E1E9
:400F400004AA954B03CB03C253AA04AB03CB03C2002399460126082207E1012E00D0F7E04346032B00D0F6E052AA93791B02527913439A465B461902514409025346FF2B5E
:400F800000D90A27002F00D0E8E0802252000020FFF77EFC020001905B461B02534499B25B46002B1CD10B00FE3B9BB2012B17D80B00FF3B1A00531E9A41D3B20093190068
:400FC0000520FFF7B1FCC0B2019A121AD2B2934600990620FFF7A8FCC2B25B469A1AD2B2524252AB1A710122BFE06C4B1878C0B2FFF7B2FD002802D18022694B1A6000F0F6
:40100000D7F8FFF7C9F904270022AEE0654B1B689A46002B00D1A3E0012E00D0A3E002AB1A7042465A8053AF03970C22002104A800F02BFC04AB9B460697190002A8D047EC
:401040005B469A882623FF339A4203D953AB0699994207D0069B002B01D1002A05D1049BDFB282E00E2700227FE00E2700227CE000227AE00427002277E00427002274E0D1
:401080000C27002271E00C2700226EE0042700226BE00427002268E00427002265E00427002262E0092700225FE000225DE0042700225AE00427002257E00427002254E01D
:4010C0000427002251E0042700224EE0042700224BE00427002248E00427002245E00427002242E0002399460133FF339846032700223AE080235B009846002235E0002347
:4011000099460133FF3398460A2700222DE00700002399460133FF339846002225E0002399460133FF33984600221EE0042700221BE00427002218E00C27002215E0042750
:40114000002212E0032700220FE0042700220CE00427002209E00427002206E0002204E00527002201E00527002252A93800FFF76DFB01E000239946002D00D133E5012E42
:4011800000D130E59F239B009D443CBC90469946A246AB46F0BDC0466C190000E8000020C00000209C01002010B500F043F910BD10B500F04FF910BDF0B583B007000E0033
:4011C000019200282DD000292ED09A00D3185C0000F05CF9002811D000F058F90500AF20FFF778F900F052F98542F5D1B54200D93500019B1D800023019308E00120FFF7A9
:40120000D7F8013C002CE3D1002510230193002404E03E1900F034F930700134A542F8D804E00123019301E001230193019803B0F0BDC04670B50C001500002806D000292D
:4012400006D000F039F92C80002002E0012000E0012070BD000000000230800803D00138FDD1C046C046C0467047EFF3108072B6704780F31088704700207047002070475B
:4012800030B5C5B00400002343934293FF2872D8002970D08022520002A800F0EDFA384B9C4201D9374B00E0374B0093FF230193364B6A461A603649364A1160C0461B68A7
:4012C0001B0F1B07F0221206934204D12F4B1B68FF2213400DE02D4B1B681B0F1B07A0221206934204D0294B1B68FF22134000E000234393439B002B3FD1FFF7B6FF050099
:40130000FFF7BAFF4290439B002B25D1224A0092009A2404144300941C4A694611601F481C490860C0461268120F1207F02109068A4204D1154B1B68FF2213400BE0134AAE
:401340001268120F1207A02109068A4203D00F4B1B68FF2213404393429B002B07D1FFF78DFF4290429B002B01D0429B43932800FFF77FFF01E004234393439845B030BD2C
:40138000FF010000B6D70001B6D70000080010400400008004001040B6D800000500008070B50400FFF761FF0500102C05D8104A136803218B43136016E0202C07D80C4982
:4013C0000B6803229343023A13430B600CE0302C07D807490B6803229343013A13430B6002E00020FEF79EFF2800FFF742FF70BD3000104010B50920FEF776FF10BDC046D6
:4014000010B500F0C9F810BD10B500F0E1F810BD10B500F05DF810BD10B5054A1368802109060B431360FFF7E5FFFFF7E9FF10BD0000244010B5064B1B78002B04D1FFF7AF
:40144000E7FF0122024B1A70FFF7E6FF10BDC046A001002010B50920FEF750FFFFF7D4FF054A13685B005B0813600022034B1A600920FEF74DFF10BD00002440880F2440A7
:40148000014B18687047C04640032440024B1B681F2018407047C04608032440044B1B681F221340102BF9D0024B18607047C046080224404002244070B506000D0000240D
:4014C00003E0305DFFF7EAFF0134AC42F9D370BD10B51B4A1B4B1A6000241B4B1C601B4A1B4B1A601B4A1C4B1A600F231B490B601B490C6001201B4908601B490A601B4AF5
:4015000013601B4A1B4B1A600830FEF7F7FE03210920FEF71BFF18490920FEF705FF174B1C60174B1C60174B1C60174B1C60174B1C60174B1C601A68164B1A8010BDC0466E
:401540000B080002000024404000244001020A004800244007000080000324400403244010032440440024400002244004022440040000025000244035160000880E24404E
:40158000C80E2440480F2440080F2440C80F2440880F2440A8010020094A1368F0218B4360390B4313601168064B0B40902109020B431360044B1A88044B1A607047C046AC
:4015C00000010240FF0FFFFFA8010020880F244010B50D4C2368F022934323600B4B186880235B021840431E9841C0B200F016F82268074B13402360064B1A68E423DB0085
:401600001340054A138010BD0001024050002440FF0FFFFF880F2440A801002004490A68D2B208239A43C00018401043086070470001044010B5034B1B68002B00D0984757
:4016400010BDC046A401002003460B437FD4002243088B4274D303098B425FD3030A8B4244D3030B8B4228D3030C8B420DD3FF22090212BA030C8B4202D31212090265D0CC
:40168000030B8B4219D300E0090AC30B8B4201D3CB03C01A5241830B8B4201D38B03C01A5241430B8B4201D34B03C01A5241030B8B4201D30B03C01A5241C30A8B4201D35A
:4016C000CB02C01A5241830A8B4201D38B02C01A5241430A8B4201D34B02C01A5241030A8B4201D30B02C01A5241CDD2C3098B4201D3CB01C01A524183098B4201D38B01BA
:40170000C01A524143098B4201D34B01C01A524103098B4201D30B01C01A5241C3088B4201D3CB00C01A524183088B4201D38B00C01A524143088B4201D34B00C01A524104
:40174000411A00D201465241104670475DE0CA0F00D04942031000D34042534000229C4603098B422DD3030A8B4212D3FC22890112BA030A8B420CD3890192118B4208D34B
:40178000890192118B4204D389013AD0921100E08909C3098B4201D3CB01C01A524183098B4201D38B01C01A524143098B4201D34B01C01A524103098B4201D30B01C01AAA
:4017C0005241C3088B4201D3CB00C01A524183088B4201D38B00C01A5241D9D243088B4201D34B00C01A5241411A00D20146634652415B10104601D34042002B00D54942ED
:40180000704763465B1000D3404201B5002000F005F802BD0029F8D016E770477047C046014B18687047C046540100200E4B70B500251E000D4CE41AA410A54204D0AB0074
:40184000F35898470135F8E700F096F8084B00251E00084CE41AA410A54204D0AB00F35898470135F8E770BD8419000084190000841900008C190000002310B59A4203D02A
:40188000CC5CC4540133F9E710BD03008218934202D019700133FAE770470000001B0000FF0000000000000000300F40000800400F400008030405060708090A0B0C0E0FCE
:4018C000101112131415161718191B1C1D1E1F2021222325262728292A2B2E2F3031323334350000F6090000360900004609000056090000660900007609000086090000F7
:40190000A609000096090000B6090000C6090000D6090000E6090000E60C0000700D0000BC0D0000F20D0000C00E0000CC0E00000C0F0000380F0000F20D00005A0F000054
:40194000EA0F0000A80C00000C1000000C1000000C1000000C1000000C1000000C1000000C1000000C1000000A0D0000A0110210003C010143000000F8B5C046F8BC08BC54
:401980009E4670476501000025020000F8B5C046F8BC08BC9E4670473D010000B0190000C800002090000000580000000000000000000000010000000000C05D80BB000009
:4019C00030000000006CDC02F000000004040400020000009C180000A018000000000000000000000000000000000000000000000000000000000000000000007419000076
:401A0000000000000000000000000000000000000000000000000000000000000000000000000000000000000000000000000000000000000000000000000000F400002092
:401A40000000000000000000000000000000000000000000000000000000000000000000000000000000000000000000000000000000000000000000000000000000000066
:401A80000000000000000000000000000000000000000000000000000000000000000000000000000000000000000000000000000000000000000000000000000000000026
:401AC00000000000000000000000000000000000000000000000000000000000000000000000000000000000000000000000000000000000000000000000000000000000E6
:401B000000000000000000000000000000000000000000000000000000000000000000000000000000000000000000000000000000000000000000000000000000000000A5
:40FFC00000000000000000000000000000000000000001000201000000000000000000000000000000000000000000000000000000000000000000000000000000000000FD
:0200000490303A
:02000000984224
:0200000490402A
:200000000000000000000000000000000000000000000000000000000000000000000000E0
:0200000490501A
:0C0000000002100211A00001100AA9E289
:0200000490600A
:0100000001FE
:00000001FF